{
  "_format": "hh-sol-artifact-1",
  "contractName": "TestDevilToken",
  "sourceName": "contracts/TestDevilToken.sol",
  "abi": [
    {
      "inputs": [],
      "stateMutability": "nonpayable",
      "type": "constructor"
    },
    {
      "anonymous": false,
      "inputs": [
        {
          "indexed": true,
          "internalType": "address",
          "name": "owner",
          "type": "address"
        },
        {
          "indexed": true,
          "internalType": "address",
          "name": "spender",
          "type": "address"
        },
        {
          "indexed": false,
          "internalType": "uint256",
          "name": "value",
          "type": "uint256"
        }
      ],
      "name": "Approval",
      "type": "event"
    },
    {
      "anonymous": false,
      "inputs": [
        {
          "indexed": true,
          "internalType": "address",
          "name": "previousOwner",
          "type": "address"
        },
        {
          "indexed": true,
          "internalType": "address",
          "name": "newOwner",
          "type": "address"
        }
      ],
      "name": "OwnershipTransferred",
      "type": "event"
    },
    {
      "anonymous": false,
      "inputs": [
        {
          "indexed": true,
          "internalType": "address",
          "name": "from",
          "type": "address"
        },
        {
          "indexed": true,
          "internalType": "address",
          "name": "to",
          "type": "address"
        },
        {
          "indexed": false,
          "internalType": "uint256",
          "name": "value",
          "type": "uint256"
        }
      ],
      "name": "Transfer",
      "type": "event"
    },
    {
      "inputs": [
        {
          "internalType": "address",
          "name": "owner",
          "type": "address"
        },
        {
          "internalType": "address",
          "name": "spender",
          "type": "address"
        }
      ],
      "name": "allowance",
      "outputs": [
        {
          "internalType": "uint256",
          "name": "",
          "type": "uint256"
        }
      ],
      "stateMutability": "view",
      "type": "function"
    },
    {
      "inputs": [
        {
          "internalType": "address",
          "name": "spender",
          "type": "address"
        },
        {
          "internalType": "uint256",
          "name": "amount",
          "type": "uint256"
        }
      ],
      "name": "approve",
      "outputs": [
        {
          "internalType": "bool",
          "name": "",
          "type": "bool"
        }
      ],
      "stateMutability": "nonpayable",
      "type": "function"
    },
    {
      "inputs": [
        {
          "internalType": "address",
          "name": "account",
          "type": "address"
        }
      ],
      "name": "balanceOf",
      "outputs": [
        {
          "internalType": "uint256",
          "name": "",
          "type": "uint256"
        }
      ],
      "stateMutability": "view",
      "type": "function"
    },
    {
      "inputs": [],
      "name": "decimals",
      "outputs": [
        {
          "internalType": "uint8",
          "name": "",
          "type": "uint8"
        }
      ],
      "stateMutability": "view",
      "type": "function"
    },
    {
      "inputs": [
        {
          "internalType": "address",
          "name": "spender",
          "type": "address"
        },
        {
          "internalType": "uint256",
          "name": "subtractedValue",
          "type": "uint256"
        }
      ],
      "name": "decreaseAllowance",
      "outputs": [
        {
          "internalType": "bool",
          "name": "",
          "type": "bool"
        }
      ],
      "stateMutability": "nonpayable",
      "type": "function"
    },
    {
      "inputs": [
        {
          "internalType": "address",
          "name": "spender",
          "type": "address"
        },
        {
          "internalType": "uint256",
          "name": "addedValue",
          "type": "uint256"
        }
      ],
      "name": "increaseAllowance",
      "outputs": [
        {
          "internalType": "bool",
          "name": "",
          "type": "bool"
        }
      ],
      "stateMutability": "nonpayable",
      "type": "function"
    },
    {
      "inputs": [],
      "name": "name",
      "outputs": [
        {
          "internalType": "string",
          "name": "",
          "type": "string"
        }
      ],
      "stateMutability": "view",
      "type": "function"
    },
    {
      "inputs": [],
      "name": "owner",
      "outputs": [
        {
          "internalType": "address",
          "name": "",
          "type": "address"
        }
      ],
      "stateMutability": "view",
      "type": "function"
    },
    {
      "inputs": [],
      "name": "renounceOwnership",
      "outputs": [],
      "stateMutability": "nonpayable",
      "type": "function"
    },
    {
      "inputs": [],
      "name": "symbol",
      "outputs": [
        {
          "internalType": "string",
          "name": "",
          "type": "string"
        }
      ],
      "stateMutability": "view",
      "type": "function"
    },
    {
      "inputs": [],
      "name": "tokenTotalSupply",
      "outputs": [
        {
          "internalType": "uint256",
          "name": "",
          "type": "uint256"
        }
      ],
      "stateMutability": "view",
      "type": "function"
    },
    {
      "inputs": [],
      "name": "totalSupply",
      "outputs": [
        {
          "internalType": "uint256",
          "name": "",
          "type": "uint256"
        }
      ],
      "stateMutability": "view",
      "type": "function"
    },
    {
      "inputs": [
        {
          "internalType": "address",
          "name": "to",
          "type": "address"
        },
        {
          "internalType": "uint256",
          "name": "amount",
          "type": "uint256"
        }
      ],
      "name": "transfer",
      "outputs": [
        {
          "internalType": "bool",
          "name": "",
          "type": "bool"
        }
      ],
      "stateMutability": "nonpayable",
      "type": "function"
    },
    {
      "inputs": [
        {
          "internalType": "address",
          "name": "from",
          "type": "address"
        },
        {
          "internalType": "address",
          "name": "to",
          "type": "address"
        },
        {
          "internalType": "uint256",
          "name": "amount",
          "type": "uint256"
        }
      ],
      "name": "transferFrom",
      "outputs": [
        {
          "internalType": "bool",
          "name": "",
          "type": "bool"
        }
      ],
      "stateMutability": "nonpayable",
      "type": "function"
    },
    {
      "inputs": [
        {
          "internalType": "address",
          "name": "newOwner",
          "type": "address"
        }
      ],
      "name": "transferOwnership",
      "outputs": [],
      "stateMutability": "nonpayable",
      "type": "function"
    }
  ],
  "bytecode": "0x60806040526a52b7d2dcc80cd2e40000006006553480156200002057600080fd5b5060408051808201825260098082526815195cdd11195d9a5b60ba1b6020808401828152855180870190965292855284015281519192916200006591600391620001ef565b5080516200007b906004906020840190620001ef565b5050506200009862000092620000b260201b60201c565b620000b6565b620000ac336006546200010860201b60201c565b62000337565b3390565b600580546001600160a01b038381166001600160a01b0319831681179093556040519116919082907f8be0079c531659141344cd1fd0a4f28419497f9722a3daafe3b4186f6b6457e090600090a35050565b6001600160a01b0382166200013a5760405162461bcd60e51b8152600401620001319062000295565b60405180910390fd5b6200014860008383620001ea565b80600260008282546200015c9190620002d5565b90915550506001600160a01b038216600090815260208190526040812080548392906200018b908490620002d5565b90915550506040516001600160a01b038316906000907fddf252ad1be2c89b69c2b068fc378daa952ba7f163c4a11628f55a4df523b3ef90620001d0908590620002cc565b60405180910390a3620001e660008383620001ea565b5050565b505050565b828054620001fd90620002fa565b90600052602060002090601f0160209004810192826200022157600085556200026c565b82601f106200023c57805160ff19168380011785556200026c565b828001600101855582156200026c579182015b828111156200026c5782518255916020019190600101906200024f565b506200027a9291506200027e565b5090565b5b808211156200027a57600081556001016200027f565b6020808252601f908201527f45524332303a206d696e7420746f20746865207a65726f206164647265737300604082015260600190565b90815260200190565b60008219821115620002f557634e487b7160e01b81526011600452602481fd5b500190565b6002810460018216806200030f57607f821691505b602082108114156200033157634e487b7160e01b600052602260045260246000fd5b50919050565b610c7380620003476000396000f3fe608060405234801561001057600080fd5b50600436106100f55760003560e01c8063715018a611610097578063a9059cbb11610066578063a9059cbb146101d5578063dd62ed3e146101e8578063f2fde38b146101fb578063f7abab9e1461020e576100f5565b8063715018a61461019b5780638da5cb5b146101a557806395d89b41146101ba578063a457c2d7146101c2576100f5565b806323b872dd116100d357806323b872dd1461014d578063313ce56714610160578063395093511461017557806370a0823114610188576100f5565b806306fdde03146100fa578063095ea7b31461011857806318160ddd14610138575b600080fd5b610102610216565b60405161010f919061087d565b60405180910390f35b61012b610126366004610835565b6102a8565b60405161010f9190610872565b6101406102ca565b60405161010f9190610bc7565b61012b61015b3660046107fa565b6102d0565b6101686102fe565b60405161010f9190610bd0565b61012b610183366004610835565b610303565b6101406101963660046107a7565b61034f565b6101a361036e565b005b6101ad6103c2565b60405161010f919061085e565b6101026103d1565b61012b6101d0366004610835565b6103e0565b61012b6101e3366004610835565b610441565b6101406101f63660046107c8565b610459565b6101a36102093660046107a7565b610484565b6101406104f5565b60606003805461022590610c02565b80601f016020809104026020016040519081016040528092919081815260200182805461025190610c02565b801561029e5780601f106102735761010080835404028352916020019161029e565b820191906000526020600020905b81548152906001019060200180831161028157829003601f168201915b5050505050905090565b6000806102b36104fb565b90506102c08185856104ff565b5060019392505050565b60025490565b6000806102db6104fb565b90506102e88582856105b3565b6102f38585856105fd565b506001949350505050565b601290565b60008061030e6104fb565b6001600160a01b038082166000908152600160209081526040808320938916835292905220549091506102c0908290869061034a908790610bde565b6104ff565b6001600160a01b0381166000908152602081905260409020545b919050565b6103766104fb565b6001600160a01b03166103876103c2565b6001600160a01b0316146103b65760405162461bcd60e51b81526004016103ad90610a7b565b60405180910390fd5b6103c06000610721565b565b6005546001600160a01b031690565b60606004805461022590610c02565b6000806103eb6104fb565b6001600160a01b03808216600090815260016020908152604080832093891683529290522054909150838110156104345760405162461bcd60e51b81526004016103ad90610b6a565b6102f382868684036104ff565b60008061044c6104fb565b90506102c08185856105fd565b6001600160a01b03918216600090815260016020908152604080832093909416825291909152205490565b61048c6104fb565b6001600160a01b031661049d6103c2565b6001600160a01b0316146104c35760405162461bcd60e51b81526004016103ad90610a7b565b6001600160a01b0381166104e95760405162461bcd60e51b81526004016103ad9061092d565b6104f281610721565b50565b60065481565b3390565b6001600160a01b0383166105255760405162461bcd60e51b81526004016103ad90610b0d565b6001600160a01b03821661054b5760405162461bcd60e51b81526004016103ad9061098a565b6001600160a01b0380841660008181526001602090815260408083209487168084529490915290819020849055517f8c5be1e5ebec7d5bd14f71427d1e84f3dd0314c0f7b2291e5b200ac8c7c3b925906105a6908590610bc7565b60405180910390a3505050565b60006105bf8484610459565b905060001981146105f757818110156105ea5760405162461bcd60e51b81526004016103ad906109e7565b6105f784848484036104ff565b50505050565b6001600160a01b0383166106235760405162461bcd60e51b81526004016103ad90610ab0565b6001600160a01b0382166106495760405162461bcd60e51b81526004016103ad906108d0565b61065483838361078b565b6001600160a01b0383166000908152602081905260409020548181101561068d5760405162461bcd60e51b81526004016103ad90610a1e565b6001600160a01b038085166000908152602081905260408082208585039055918516815290812080548492906106c4908490610bde565b92505081905550826001600160a01b0316846001600160a01b03167fddf252ad1be2c89b69c2b068fc378daa952ba7f163c4a11628f55a4df523b3ef8460405161070e9190610bc7565b60405180910390a36105f784848461078b565b600580546001600160a01b038381167fffffffffffffffffffffffff0000000000000000000000000000000000000000831681179093556040519116919082907f8be0079c531659141344cd1fd0a4f28419497f9722a3daafe3b4186f6b6457e090600090a35050565b505050565b80356001600160a01b038116811461036957600080fd5b6000602082840312156107b8578081fd5b6107c182610790565b9392505050565b600080604083850312156107da578081fd5b6107e383610790565b91506107f160208401610790565b90509250929050565b60008060006060848603121561080e578081fd5b61081784610790565b925061082560208501610790565b9150604084013590509250925092565b60008060408385031215610847578182fd5b61085083610790565b946020939093013593505050565b6001600160a01b0391909116815260200190565b901515815260200190565b6000602080835283518082850152825b818110156108a95785810183015185820160400152820161088d565b818111156108ba5783604083870101525b50601f01601f1916929092016040019392505050565b60208082526023908201527f45524332303a207472616e7366657220746f20746865207a65726f206164647260408201527f6573730000000000000000000000000000000000000000000000000000000000606082015260800190565b60208082526026908201527f4f776e61626c653a206e6577206f776e657220697320746865207a65726f206160408201527f6464726573730000000000000000000000000000000000000000000000000000606082015260800190565b60208082526022908201527f45524332303a20617070726f766520746f20746865207a65726f20616464726560408201527f7373000000000000000000000000000000000000000000000000000000000000606082015260800190565b6020808252601d908201527f45524332303a20696e73756666696369656e7420616c6c6f77616e6365000000604082015260600190565b60208082526026908201527f45524332303a207472616e7366657220616d6f756e742065786365656473206260408201527f616c616e63650000000000000000000000000000000000000000000000000000606082015260800190565b6020808252818101527f4f776e61626c653a2063616c6c6572206973206e6f7420746865206f776e6572604082015260600190565b60208082526025908201527f45524332303a207472616e736665722066726f6d20746865207a65726f20616460408201527f6472657373000000000000000000000000000000000000000000000000000000606082015260800190565b60208082526024908201527f45524332303a20617070726f76652066726f6d20746865207a65726f2061646460408201527f7265737300000000000000000000000000000000000000000000000000000000606082015260800190565b60208082526025908201527f45524332303a2064656372656173656420616c6c6f77616e63652062656c6f7760408201527f207a65726f000000000000000000000000000000000000000000000000000000606082015260800190565b90815260200190565b60ff91909116815260200190565b60008219821115610bfd57634e487b7160e01b81526011600452602481fd5b500190565b600281046001821680610c1657607f821691505b60208210811415610c3757634e487b7160e01b600052602260045260246000fd5b5091905056fea26469706673582212200d24a287cd7b8d8ffb83ffd6ffed12ce2f103e40e24a5bc88375d505b9500de264736f6c63430008000033",
  "linkReferences": {},
  "deployedLinkReferences": {}
}