{
  "_format": "hh-sol-artifact-1",
  "contractName": "DevilBuyer",
  "sourceName": "contracts/DevilBuyer.sol",
  "abi": [
    {
      "inputs": [
        {
          "internalType": "address",
          "name": "_devilToken",
          "type": "address"
        },
        {
          "internalType": "address",
          "name": "_usdc",
          "type": "address"
        }
      ],
      "stateMutability": "nonpayable",
      "type": "constructor"
    },
    {
      "anonymous": false,
      "inputs": [
        {
          "indexed": true,
          "internalType": "address",
          "name": "_user",
          "type": "address"
        },
        {
          "indexed": false,
          "internalType": "uint256",
          "name": "_amount",
          "type": "uint256"
        }
      ],
      "name": "Deposited",
      "type": "event"
    },
    {
      "anonymous": false,
      "inputs": [
        {
          "indexed": true,
          "internalType": "address",
          "name": "previousOwner",
          "type": "address"
        },
        {
          "indexed": true,
          "internalType": "address",
          "name": "newOwner",
          "type": "address"
        }
      ],
      "name": "OwnershipTransferred",
      "type": "event"
    },
    {
      "inputs": [
        {
          "internalType": "uint256",
          "name": "_USDCAmount",
          "type": "uint256"
        }
      ],
      "name": "buyDevilToken",
      "outputs": [],
      "stateMutability": "payable",
      "type": "function"
    },
    {
      "inputs": [],
      "name": "cliffDuration",
      "outputs": [
        {
          "internalType": "uint256",
          "name": "",
          "type": "uint256"
        }
      ],
      "stateMutability": "view",
      "type": "function"
    },
    {
      "inputs": [
        {
          "internalType": "uint256",
          "name": "_USDCAmount",
          "type": "uint256"
        }
      ],
      "name": "deposit",
      "outputs": [],
      "stateMutability": "nonpayable",
      "type": "function"
    },
    {
      "inputs": [
        {
          "internalType": "address",
          "name": "",
          "type": "address"
        }
      ],
      "name": "depositInfo",
      "outputs": [
        {
          "internalType": "uint256",
          "name": "depositUSDCAmount",
          "type": "uint256"
        },
        {
          "internalType": "uint256",
          "name": "devilTokenAmount",
          "type": "uint256"
        },
        {
          "internalType": "uint256",
          "name": "restUSDCAmount",
          "type": "uint256"
        },
        {
          "internalType": "uint256",
          "name": "depositMoment",
          "type": "uint256"
        }
      ],
      "stateMutability": "view",
      "type": "function"
    },
    {
      "inputs": [],
      "name": "getBalanceForUser",
      "outputs": [
        {
          "internalType": "uint256",
          "name": "",
          "type": "uint256"
        }
      ],
      "stateMutability": "view",
      "type": "function"
    },
    {
      "inputs": [],
      "name": "owner",
      "outputs": [
        {
          "internalType": "address",
          "name": "",
          "type": "address"
        }
      ],
      "stateMutability": "view",
      "type": "function"
    },
    {
      "inputs": [],
      "name": "renounceOwnership",
      "outputs": [],
      "stateMutability": "nonpayable",
      "type": "function"
    },
    {
      "inputs": [],
      "name": "router",
      "outputs": [
        {
          "internalType": "contract IUniswapV2Router02",
          "name": "",
          "type": "address"
        }
      ],
      "stateMutability": "view",
      "type": "function"
    },
    {
      "inputs": [
        {
          "internalType": "address",
          "name": "newOwner",
          "type": "address"
        }
      ],
      "name": "transferOwnership",
      "outputs": [],
      "stateMutability": "nonpayable",
      "type": "function"
    }
  ],
  "bytecode": "0x608060405262069780600255600780546001600160a01b03191673a6ad18c2ac47803e193f75c3677b14bf19b9488317905534801561003d57600080fd5b50604051610bbb380380610bbb83398101604081905261005c91610124565b61006c6100676100b4565b6100b8565b60018055600480546001600160a01b03199081166001600160a01b03948516179091556005805482169284169290921790915560075460068054919093169116179055610156565b3390565b600080546001600160a01b038381166001600160a01b0319831681178455604051919092169283917f8be0079c531659141344cd1fd0a4f28419497f9722a3daafe3b4186f6b6457e09190a35050565b80516001600160a01b038116811461011f57600080fd5b919050565b60008060408385031215610136578182fd5b61013f83610108565b915061014d60208401610108565b90509250929050565b610a56806101656000396000f3fe6080604052600436106100965760003560e01c8063b6b55f2511610069578063efaeb0931161004e578063efaeb09314610164578063f2fde38b14610177578063f887ea401461019757610096565b8063b6b55f251461012f578063d85349f71461014f57610096565b8063634459891461009b5780636d04e262146100d4578063715018a6146100f65780638da5cb5b1461010d575b600080fd5b3480156100a757600080fd5b506100bb6100b6366004610694565b6101ac565b6040516100cb94939291906109aa565b60405180910390f35b3480156100e057600080fd5b506100e96101d5565b6040516100cb9190610931565b34801561010257600080fd5b5061010b6101eb565b005b34801561011957600080fd5b5061012261023f565b6040516100cb91906107ad565b34801561013b57600080fd5b5061010b61014a366004610795565b61024e565b34801561015b57600080fd5b506100e9610328565b61010b610172366004610795565b61032e565b34801561018357600080fd5b5061010b610192366004610694565b610589565b3480156101a357600080fd5b506101226105fa565b600360208190526000918252604090912080546001820154600283015492909301549092919084565b3360009081526003602052604090206002015490565b6101f3610609565b6001600160a01b031661020461023f565b6001600160a01b0316146102335760405162461bcd60e51b815260040161022a906108fc565b60405180910390fd5b61023d600061060d565b565b6000546001600160a01b031690565b6005546040516323b872dd60e01b81526001600160a01b03909116906323b872dd90610282903390309086906004016107c1565b602060405180830381600087803b15801561029c57600080fd5b505af11580156102b0573d6000803e3d6000fd5b505050506040513d601f19601f820116820180604052508101906102d49190610775565b503360008181526003602081905260409182902084815542910155517f2da466a7b24304f47e87fa2e1e5a81b9831ce54fec19055ce277ca2f39ba42c49061031d908490610931565b60405180910390a250565b60025481565b3360009081526003602052604090205481111561035d5760405162461bcd60e51b815260040161022a90610842565b600254336000908152600360208190526040909120015461037e90426109dd565b101561039c5760405162461bcd60e51b815260040161022a9061089f565b6005546007546040516323b872dd60e01b81526001600160a01b03928316926323b872dd926103d59230929091169086906004016107c1565b602060405180830381600087803b1580156103ef57600080fd5b505af1158015610403573d6000803e3d6000fd5b505050506040513d601f19601f820116820180604052508101906104279190610775565b50604080516002808252606082018352839260009283929091602083019080368337019050509050308160008151811061047157634e487b7160e01b600052603260045260246000fd5b6001600160a01b0392831660209182029290920101526004548251911690829060019081106104b057634e487b7160e01b600052603260045260246000fd5b6001600160a01b039283166020918202929092010152600654166338ed1739848484306104df42611c20610675565b6040518663ffffffff1660e01b81526004016104ff95949392919061093a565b600060405180830381600087803b15801561051957600080fd5b505af115801561052d573d6000803e3d6000fd5b505050506040513d6000823e601f3d908101601f1916820160405261055591908101906106bb565b50336000908152600360205260409020546105709085610688565b3360009081526003602052604090206002015550505050565b610591610609565b6001600160a01b03166105a261023f565b6001600160a01b0316146105c85760405162461bcd60e51b815260040161022a906108fc565b6001600160a01b0381166105ee5760405162461bcd60e51b815260040161022a906107e5565b6105f78161060d565b50565b6006546001600160a01b031681565b3390565b600080546001600160a01b038381167fffffffffffffffffffffffff0000000000000000000000000000000000000000831681178455604051919092169283917f8be0079c531659141344cd1fd0a4f28419497f9722a3daafe3b4186f6b6457e09190a35050565b600061068182846109c5565b9392505050565b600061068182846109dd565b6000602082840312156106a5578081fd5b81356001600160a01b0381168114610681578182fd5b600060208083850312156106cd578182fd5b825167ffffffffffffffff808211156106e4578384fd5b818501915085601f8301126106f7578384fd5b81518181111561070957610709610a0a565b8381026040518582820101818110858211171561072857610728610a0a565b604052828152858101935084860182860187018a1015610746578788fd5b8795505b8386101561076857805185526001959095019493860193860161074a565b5098975050505050505050565b600060208284031215610786578081fd5b81518015158114610681578182fd5b6000602082840312156107a6578081fd5b5035919050565b6001600160a01b0391909116815260200190565b6001600160a01b039384168152919092166020820152604081019190915260600190565b60208082526026908201527f4f776e61626c653a206e6577206f776e657220697320746865207a65726f206160408201527f6464726573730000000000000000000000000000000000000000000000000000606082015260800190565b60208082526029908201527f5553444320416d6f756e74206578636565646564207468616e20796f7572206460408201527f65706f73697465642e0000000000000000000000000000000000000000000000606082015260800190565b60208082526025908201527f4e6f7420617661696c61626c6520746f2062757920446576696c20746f6b656e60408201527f207965742e000000000000000000000000000000000000000000000000000000606082015260800190565b6020808252818101527f4f776e61626c653a2063616c6c6572206973206e6f7420746865206f776e6572604082015260600190565b90815260200190565b600060a082018783526020878185015260a0604085015281875180845260c0860191508289019350845b818110156109895784516001600160a01b031683529383019391830191600101610964565b50506001600160a01b03969096166060850152505050608001529392505050565b93845260208401929092526040830152606082015260800190565b600082198211156109d8576109d86109f4565b500190565b6000828210156109ef576109ef6109f4565b500390565b634e487b7160e01b600052601160045260246000fd5b634e487b7160e01b600052604160045260246000fdfea2646970667358221220b77518604a2b73df695a3b6946c2bd08454dd608cc747905b8638ac3edc7b1d864736f6c63430008000033",
  "linkReferences": {},
  "deployedLinkReferences": {}
}